{
  "_format": "hh-sol-artifact-1",
  "contractName": "FanCamp",
  "sourceName": "contracts/FanClub.sol",
  "abi": [
    {
      "anonymous": false,
      "inputs": [
        {
          "indexed": true,
          "internalType": "uint256",
          "name": "artistId",
          "type": "uint256"
        },
        {
          "indexed": true,
          "internalType": "address",
          "name": "artistAddress",
          "type": "address"
        },
        {
          "indexed": false,
          "internalType": "string",
          "name": "name",
          "type": "string"
        },
        {
          "indexed": false,
          "internalType": "string",
          "name": "genre",
          "type": "string"
        },
        {
          "indexed": false,
          "internalType": "string",
          "name": "avatar",
          "type": "string"
        }
      ],
      "name": "ArtistCreated",
      "type": "event"
    },
    {
      "anonymous": false,
      "inputs": [
        {
          "indexed": true,
          "internalType": "uint256",
          "name": "contentId",
          "type": "uint256"
        },
        {
          "indexed": true,
          "internalType": "uint256",
          "name": "artistId",
          "type": "uint256"
        },
        {
          "indexed": false,
          "internalType": "string",
          "name": "membershipTier",
          "type": "string"
        },
        {
          "indexed": false,
          "internalType": "uint256",
          "name": "membershipPrice",
          "type": "uint256"
        }
      ],
      "name": "ContentCreated",
      "type": "event"
    },
    {
      "anonymous": false,
      "inputs": [
        {
          "indexed": true,
          "internalType": "uint256",
          "name": "subscriberId",
          "type": "uint256"
        },
        {
          "indexed": true,
          "internalType": "address",
          "name": "user",
          "type": "address"
        },
        {
          "indexed": true,
          "internalType": "uint256",
          "name": "contentId",
          "type": "uint256"
        },
        {
          "indexed": false,
          "internalType": "uint256",
          "name": "artistId",
          "type": "uint256"
        }
      ],
      "name": "Subscribed",
      "type": "event"
    },
    {
      "anonymous": false,
      "inputs": [
        {
          "indexed": true,
          "internalType": "uint256",
          "name": "subscriberId",
          "type": "uint256"
        },
        {
          "indexed": true,
          "internalType": "address",
          "name": "user",
          "type": "address"
        },
        {
          "indexed": true,
          "internalType": "uint256",
          "name": "contentId",
          "type": "uint256"
        },
        {
          "indexed": false,
          "internalType": "uint256",
          "name": "artistId",
          "type": "uint256"
        }
      ],
      "name": "SubscriptionRevoked",
      "type": "event"
    },
    {
      "inputs": [
        {
          "internalType": "address",
          "name": "",
          "type": "address"
        },
        {
          "internalType": "uint256",
          "name": "",
          "type": "uint256"
        }
      ],
      "name": "artistContents",
      "outputs": [
        {
          "internalType": "uint256",
          "name": "",
          "type": "uint256"
        }
      ],
      "stateMutability": "view",
      "type": "function"
    },
    {
      "inputs": [],
      "name": "artistCounter",
      "outputs": [
        {
          "internalType": "uint256",
          "name": "",
          "type": "uint256"
        }
      ],
      "stateMutability": "view",
      "type": "function"
    },
    {
      "inputs": [
        {
          "internalType": "uint256",
          "name": "",
          "type": "uint256"
        }
      ],
      "name": "artistIdToAddress",
      "outputs": [
        {
          "internalType": "address",
          "name": "",
          "type": "address"
        }
      ],
      "stateMutability": "view",
      "type": "function"
    },
    {
      "inputs": [
        {
          "internalType": "address",
          "name": "",
          "type": "address"
        }
      ],
      "name": "artists",
      "outputs": [
        {
          "internalType": "uint256",
          "name": "id",
          "type": "uint256"
        },
        {
          "internalType": "string",
          "name": "name",
          "type": "string"
        },
        {
          "internalType": "string",
          "name": "genre",
          "type": "string"
        },
        {
          "internalType": "string",
          "name": "avatar",
          "type": "string"
        },
        {
          "internalType": "bool",
          "name": "exists",
          "type": "bool"
        }
      ],
      "stateMutability": "view",
      "type": "function"
    },
    {
      "inputs": [],
      "name": "contentCounter",
      "outputs": [
        {
          "internalType": "uint256",
          "name": "",
          "type": "uint256"
        }
      ],
      "stateMutability": "view",
      "type": "function"
    },
    {
      "inputs": [
        {
          "internalType": "uint256",
          "name": "",
          "type": "uint256"
        },
        {
          "internalType": "uint256",
          "name": "",
          "type": "uint256"
        }
      ],
      "name": "contentSubscribers",
      "outputs": [
        {
          "internalType": "uint256",
          "name": "id",
          "type": "uint256"
        },
        {
          "internalType": "address",
          "name": "user",
          "type": "address"
        },
        {
          "internalType": "uint256",
          "name": "artistId",
          "type": "uint256"
        },
        {
          "internalType": "uint256",
          "name": "contentId",
          "type": "uint256"
        }
      ],
      "stateMutability": "view",
      "type": "function"
    },
    {
      "inputs": [
        {
          "internalType": "uint256",
          "name": "",
          "type": "uint256"
        }
      ],
      "name": "contents",
      "outputs": [
        {
          "internalType": "uint256",
          "name": "id",
          "type": "uint256"
        },
        {
          "internalType": "address",
          "name": "artist",
          "type": "address"
        },
        {
          "internalType": "string",
          "name": "membershipTier",
          "type": "string"
        },
        {
          "internalType": "uint256",
          "name": "membershipPrice",
          "type": "uint256"
        }
      ],
      "stateMutability": "view",
      "type": "function"
    },
    {
      "inputs": [
        {
          "internalType": "string",
          "name": "_name",
          "type": "string"
        },
        {
          "internalType": "string",
          "name": "_genre",
          "type": "string"
        },
        {
          "internalType": "string",
          "name": "_avatar",
          "type": "string"
        }
      ],
      "name": "createArtist",
      "outputs": [],
      "stateMutability": "nonpayable",
      "type": "function"
    },
    {
      "inputs": [
        {
          "internalType": "string",
          "name": "_membershipTier",
          "type": "string"
        },
        {
          "internalType": "string[]",
          "name": "_benefits",
          "type": "string[]"
        },
        {
          "internalType": "uint256",
          "name": "_membershipPrice",
          "type": "uint256"
        }
      ],
      "name": "createContent",
      "outputs": [],
      "stateMutability": "nonpayable",
      "type": "function"
    },
    {
      "inputs": [],
      "name": "getArtists",
      "outputs": [
        {
          "components": [
            {
              "internalType": "uint256",
              "name": "id",
              "type": "uint256"
            },
            {
              "internalType": "string",
              "name": "name",
              "type": "string"
            },
            {
              "internalType": "string",
              "name": "genre",
              "type": "string"
            },
            {
              "internalType": "string",
              "name": "avatar",
              "type": "string"
            },
            {
              "internalType": "bool",
              "name": "exists",
              "type": "bool"
            }
          ],
          "internalType": "struct FanCamp.Artist[]",
          "name": "",
          "type": "tuple[]"
        }
      ],
      "stateMutability": "view",
      "type": "function"
    },
    {
      "inputs": [
        {
          "internalType": "uint256",
          "name": "_artistId",
          "type": "uint256"
        }
      ],
      "name": "getSubscribersByArtist",
      "outputs": [
        {
          "components": [
            {
              "internalType": "uint256",
              "name": "id",
              "type": "uint256"
            },
            {
              "internalType": "address",
              "name": "user",
              "type": "address"
            },
            {
              "internalType": "uint256",
              "name": "artistId",
              "type": "uint256"
            },
            {
              "internalType": "uint256",
              "name": "contentId",
              "type": "uint256"
            }
          ],
          "internalType": "struct FanCamp.Subscriber[]",
          "name": "",
          "type": "tuple[]"
        }
      ],
      "stateMutability": "view",
      "type": "function"
    },
    {
      "inputs": [
        {
          "internalType": "uint256",
          "name": "_contentId",
          "type": "uint256"
        }
      ],
      "name": "getSubscribersByContent",
      "outputs": [
        {
          "components": [
            {
              "internalType": "uint256",
              "name": "id",
              "type": "uint256"
            },
            {
              "internalType": "address",
              "name": "user",
              "type": "address"
            },
            {
              "internalType": "uint256",
              "name": "artistId",
              "type": "uint256"
            },
            {
              "internalType": "uint256",
              "name": "contentId",
              "type": "uint256"
            }
          ],
          "internalType": "struct FanCamp.Subscriber[]",
          "name": "",
          "type": "tuple[]"
        }
      ],
      "stateMutability": "view",
      "type": "function"
    },
    {
      "inputs": [
        {
          "internalType": "uint256",
          "name": "_contentId",
          "type": "uint256"
        },
        {
          "internalType": "uint256",
          "name": "_subscriberId",
          "type": "uint256"
        }
      ],
      "name": "revokeSubscription",
      "outputs": [],
      "stateMutability": "nonpayable",
      "type": "function"
    },
    {
      "inputs": [
        {
          "internalType": "uint256",
          "name": "_contentId",
          "type": "uint256"
        }
      ],
      "name": "subscribe",
      "outputs": [],
      "stateMutability": "payable",
      "type": "function"
    },
    {
      "inputs": [],
      "name": "subscriberCounter",
      "outputs": [
        {
          "internalType": "uint256",
          "name": "",
          "type": "uint256"
        }
      ],
      "stateMutability": "view",
      "type": "function"
    },
    {
      "inputs": [
        {
          "internalType": "uint256",
          "name": "",
          "type": "uint256"
        }
      ],
      "name": "subscriberIdToAddress",
      "outputs": [
        {
          "internalType": "address",
          "name": "",
          "type": "address"
        }
      ],
      "stateMutability": "view",
      "type": "function"
    },
    {
      "inputs": [
        {
          "internalType": "address",
          "name": "",
          "type": "address"
        },
        {
          "internalType": "uint256",
          "name": "",
          "type": "uint256"
        }
      ],
      "name": "userSubscriptions",
      "outputs": [
        {
          "internalType": "uint256",
          "name": "",
          "type": "uint256"
        }
      ],
      "stateMutability": "view",
      "type": "function"
    }
  ],
  "bytecode": "0x608060405234801561001057600080fd5b50612105806100206000396000f3fe6080604052600436106100fe5760003560e01c80637bdbc6a111610095578063c0df05c511610064578063c0df05c514610309578063c95d6edc1461033f578063d4cd0d451461035f578063e6a9aba314610381578063f0b646471461039757600080fd5b80637bdbc6a1146102795780638e25f8b114610299578063a4dea2bf146102b9578063b5ecf912146102d957600080fd5b806317aa2a3f116100d157806317aa2a3f146101c05780633c88dd3214610208578063610585231461022c57806373dca5351461024c57600080fd5b8063069dab8f146101035780630b2500a51461013d5780630f574ba71461018b57806310afc0cf146101a0575b600080fd5b34801561010f57600080fd5b5061012361011e36600461199c565b6103ad565b604051610134959493929190611a04565b60405180910390f35b34801561014957600080fd5b50610173610158366004611a58565b6006602052600090815260409020546001600160a01b031681565b6040516001600160a01b039091168152602001610134565b61019e610199366004611a58565b610577565b005b3480156101ac57600080fd5b5061019e6101bb366004611b28565b610918565b3480156101cc57600080fd5b506101e06101db366004611bb0565b610a8b565b604080519485526001600160a01b039093166020850152918301526060820152608001610134565b34801561021457600080fd5b5061021e60085481565b604051908152602001610134565b34801561023857600080fd5b5061019e610247366004611bd2565b610ada565b34801561025857600080fd5b5061026c610267366004611a58565b610c39565b6040516101349190611cc1565b34801561028557600080fd5b5061026c610294366004611a58565b610ee3565b3480156102a557600080fd5b5061019e6102b4366004611bb0565b610f80565b3480156102c557600080fd5b5061021e6102d4366004611d2e565b6114b1565b3480156102e557600080fd5b506102f96102f4366004611a58565b6114e2565b6040516101349493929190611d58565b34801561031557600080fd5b50610173610324366004611a58565b6005602052600090815260409020546001600160a01b031681565b34801561034b57600080fd5b5061021e61035a366004611d2e565b61159e565b34801561036b57600080fd5b506103746115ba565b6040516101349190611d93565b34801561038d57600080fd5b5061021e60075481565b3480156103a357600080fd5b5061021e60095481565b600060208190529081526040902080546001820180549192916103cf90611e4c565b80601f01602080910402602001604051908101604052809291908181526020018280546103fb90611e4c565b80156104485780601f1061041d57610100808354040283529160200191610448565b820191906000526020600020905b81548152906001019060200180831161042b57829003601f168201915b50505050509080600201805461045d90611e4c565b80601f016020809104026020016040519081016040528092919081815260200182805461048990611e4c565b80156104d65780601f106104ab576101008083540402835291602001916104d6565b820191906000526020600020905b8154815290600101906020018083116104b957829003601f168201915b5050505050908060030180546104eb90611e4c565b80601f016020809104026020016040519081016040528092919081815260200182805461051790611e4c565b80156105645780601f1061053957610100808354040283529160200191610564565b820191906000526020600020905b81548152906001019060200180831161054757829003601f168201915b5050506004909301549192505060ff1685565b6000818152600160208181526040808420815160a08101835281548152938101546001600160a01b031692840192909252600282018054918401916105bb90611e4c565b80601f01602080910402602001604051908101604052809291908181526020018280546105e790611e4c565b80156106345780601f1061060957610100808354040283529160200191610634565b820191906000526020600020905b81548152906001019060200180831161061757829003601f168201915b5050505050815260200160038201805480602002602001604051908101604052809291908181526020016000905b8282101561070e57838290600052602060002001805461068190611e4c565b80601f01602080910402602001604051908101604052809291908181526020018280546106ad90611e4c565b80156106fa5780601f106106cf576101008083540402835291602001916106fa565b820191906000526020600020905b8154815290600101906020018083116106dd57829003601f168201915b505050505081526020019060010190610662565b50505090825250600491909101546020918201528101519091506001600160a01b031661077b5760405162461bcd60e51b815260206004820152601660248201527510dbdb9d195b9d08191bd95cc81b9bdd08195e1a5cdd60521b60448201526064015b60405180910390fd5b806080015134146107ce5760405162461bcd60e51b815260206004820152601a60248201527f496e636f7272656374206d656d626572736869702070726963650000000000006044820152606401610772565b600980549060006107de83611e9c565b9091555050602080820180516001600160a01b0390811660009081528084526040808220548783526003808752828420835160808101855260098054825233828b01818152838801878152606085018f8152865460018181018955978c528e8c209651600491820290970196875592518688018054918e166001600160a01b031992831617905591516002870155519490960193909355808852918a528587208054938401815587528987209092018b905590548552600690975282842080549091169096179095559251925192909116913480156108fc0292909190818181858888f193505050501580156108d8573d6000803e3d6000fd5b50600954604051828152849133917fbf2cb660fb44e162e3b577d189cc3329e664c15770f029db53e08538b6192d5c9060200160405180910390a4505050565b3360009081526020819052604090206004015460ff16156109735760405162461bcd60e51b815260206004820152601560248201527441727469737420616c72656164792065786973747360581b6044820152606401610772565b6008805490600061098383611e9c565b90915550506040805160a0810182526008548152602080820186815282840186905260608301859052600160808401819052336000908152928390529390912082518155905191929091908201906109db9082611f04565b50604082015160028201906109f09082611f04565b5060608201516003820190610a059082611f04565b50608091909101516004909101805460ff191691151591909117905560088054600090815260056020526040908190208054336001600160a01b03199091168117909155915490517f9577b52e22d7f4de9cfa04c62a511421d820882da456f43971d9d6cdd529a2f990610a7e90879087908790611fc4565b60405180910390a3505050565b60036020528160005260406000208181548110610aa757600080fd5b600091825260209091206004909102018054600182015460028301546003909301549194506001600160a01b0316925084565b3360009081526020819052604090206004015460ff16610b0c5760405162461bcd60e51b815260040161077290612007565b60078054906000610b1c83611e9c565b90915550503360008181526020818152604080832054815160a0810183526007548082528185019687528184018a8152606083018a9052608083018990529086526001948590529290942084518155945192850180546001600160a01b0319166001600160a01b0390941693909317909255519092906002820190610ba19082611f04565b5060608201518051610bbd9160038401916020909101906118bb565b5060809190910151600490910155336000908152600260209081526040808320600780548254600181018455928652939094200191909155905490518291907fe5cf5532b99f44e30d6bb7f8cf780f0ad4e6ed0e5b30e6e6293595d4232e5e3990610c2b9088908790612055565b60405180910390a350505050565b6000818152600560205260408120546060916001600160a01b0390911690805b6001600160a01b038316600090815260026020526040902054811015610ce4576001600160a01b03831660009081526002602052604081208054600392919084908110610ca857610ca8612077565b906000526020600020015481526020019081526020016000208054905082610cd0919061208d565b915080610cdc81611e9c565b915050610c59565b5060008167ffffffffffffffff811115610d0057610d00611a71565b604051908082528060200260200182016040528015610d6557816020015b610d5260405180608001604052806000815260200160006001600160a01b0316815260200160008152602001600081525090565b815260200190600190039081610d1e5790505b5090506000805b6001600160a01b038516600090815260026020526040902054811015610ed85760005b6001600160a01b03861660009081526002602052604081208054600392919085908110610dbe57610dbe612077565b9060005260206000200154815260200190815260200160002080549050811015610ec5576001600160a01b03861660009081526002602052604081208054600392919085908110610e1157610e11612077565b906000526020600020015481526020019081526020016000208181548110610e3b57610e3b612077565b60009182526020918290206040805160808101825260049093029091018054835260018101546001600160a01b03169383019390935260028301549082015260039091015460608201528451859085908110610e9957610e99612077565b60200260200101819052508280610eaf90611e9c565b9350508080610ebd90611e9c565b915050610d8f565b5080610ed081611e9c565b915050610d6c565b509095945050505050565b606060036000838152602001908152602001600020805480602002602001604051908101604052809291908181526020016000905b82821015610f755760008481526020908190206040805160808101825260048602909201805483526001808201546001600160a01b0316848601526002820154928401929092526003015460608301529083529092019101610f18565b505050509050919050565b3360009081526020819052604090206004015460ff16610fb25760405162461bcd60e51b815260040161077290612007565b6000828152600160208181526040808420815160a08101835281548152938101546001600160a01b03169284019290925260028201805491840191610ff690611e4c565b80601f016020809104026020016040519081016040528092919081815260200182805461102290611e4c565b801561106f5780601f106110445761010080835404028352916020019161106f565b820191906000526020600020905b81548152906001019060200180831161105257829003601f168201915b5050505050815260200160038201805480602002602001604051908101604052809291908181526020016000905b828210156111495783829060005260206000200180546110bc90611e4c565b80601f01602080910402602001604051908101604052809291908181526020018280546110e890611e4c565b80156111355780601f1061110a57610100808354040283529160200191611135565b820191906000526020600020905b81548152906001019060200180831161111857829003601f168201915b50505050508152602001906001019061109d565b5050505081526020016004820154815250509050336001600160a01b031681602001516001600160a01b0316146111ea576040805162461bcd60e51b81526020600482015260248101919091527f4f6e6c7920746865206172746973742077686f2063726561746564207468652060448201527f636f6e74656e742063616e207265766f6b6520737562736372697074696f6e736064820152608401610772565b6000838152600360205260408120905b8154811015611471578382828154811061121657611216612077565b9060005260206000209060040201600001540361145f57600082828154811061124157611241612077565b60009182526020909120600160049092020181015484546001600160a01b0390911692508491611270916120a6565b8154811061128057611280612077565b90600052602060002090600402018383815481106112a0576112a0612077565b60009182526020909120825460049092020190815560018083015490820180546001600160a01b0319166001600160a01b039092169190911790556002808301549082015560039182015491015582548390806112ff576112ff6120b9565b6000828152602080822060046000199094018481029091018381556001810180546001600160a01b0319169055600281018490556003018390559093556001600160a01b0384168152915260408120905b8154811015611404578782828154811061136c5761136c612077565b9060005260206000200154036113f2578154829061138c906001906120a6565b8154811061139c5761139c612077565b90600052602060002001548282815481106113b9576113b9612077565b9060005260206000200181905550818054806113d7576113d76120b9565b60019003818190600052602060002001600090559055611404565b806113fc81611e9c565b915050611350565b50336000908152602081815260409182902054915191825288916001600160a01b0385169189917f2fb74c7ee0860a5f5dda322a1da1ee9cd7d185fb4bd94cca7d3ddb7130ac3c2a910160405180910390a450505050505050565b8061146981611e9c565b9150506111fa565b5060405162461bcd60e51b815260206004820152601460248201527314dd589cd8dc9a58995c881b9bdd08199bdd5b9960621b6044820152606401610772565b600260205281600052604060002081815481106114cd57600080fd5b90600052602060002001600091509150505481565b60016020819052600091825260409091208054918101546002820180546001600160a01b03909216929161151590611e4c565b80601f016020809104026020016040519081016040528092919081815260200182805461154190611e4c565b801561158e5780601f106115635761010080835404028352916020019161158e565b820191906000526020600020905b81548152906001019060200180831161157157829003601f168201915b5050505050908060040154905084565b600460205281600052604060002081815481106114cd57600080fd5b6060600060085467ffffffffffffffff8111156115d9576115d9611a71565b60405190808252806020026020018201604052801561163e57816020015b61162b6040518060a00160405280600081526020016060815260200160608152602001606081526020016000151581525090565b8152602001906001900390816115f75790505b509050600060015b60085481116118b3576000818152600560209081526040808320546001600160a01b0316808452918390529091206004015460ff16156118a0576001600160a01b03811660009081526020818152604091829020825160a081019093528054835260018101805491928401916116bb90611e4c565b80601f01602080910402602001604051908101604052809291908181526020018280546116e790611e4c565b80156117345780601f1061170957610100808354040283529160200191611734565b820191906000526020600020905b81548152906001019060200180831161171757829003601f168201915b5050505050815260200160028201805461174d90611e4c565b80601f016020809104026020016040519081016040528092919081815260200182805461177990611e4c565b80156117c65780601f1061179b576101008083540402835291602001916117c6565b820191906000526020600020905b8154815290600101906020018083116117a957829003601f168201915b505050505081526020016003820180546117df90611e4c565b80601f016020809104026020016040519081016040528092919081815260200182805461180b90611e4c565b80156118585780601f1061182d57610100808354040283529160200191611858565b820191906000526020600020905b81548152906001019060200180831161183b57829003601f168201915b50505091835250506004919091015460ff161515602090910152845185908590811061188657611886612077565b6020026020010181905250828061189c90611e9c565b9350505b50806118ab81611e9c565b915050611646565b509092915050565b828054828255906000526020600020908101928215611901579160200282015b8281111561190157825182906118f19082611f04565b50916020019190600101906118db565b5061190d929150611911565b5090565b8082111561190d576000611925828261192e565b50600101611911565b50805461193a90611e4c565b6000825580601f1061194a575050565b601f016020900490600052602060002090810190611968919061196b565b50565b5b8082111561190d576000815560010161196c565b80356001600160a01b038116811461199757600080fd5b919050565b6000602082840312156119ae57600080fd5b6119b782611980565b9392505050565b6000815180845260005b818110156119e4576020818501810151868301820152016119c8565b506000602082860101526020601f19601f83011685010191505092915050565b85815260a060208201526000611a1d60a08301876119be565b8281036040840152611a2f81876119be565b90508281036060840152611a4381866119be565b91505082151560808301529695505050505050565b600060208284031215611a6a57600080fd5b5035919050565b634e487b7160e01b600052604160045260246000fd5b604051601f8201601f1916810167ffffffffffffffff81118282101715611ab057611ab0611a71565b604052919050565b600082601f830112611ac957600080fd5b813567ffffffffffffffff811115611ae357611ae3611a71565b611af6601f8201601f1916602001611a87565b818152846020838601011115611b0b57600080fd5b816020850160208301376000918101602001919091529392505050565b600080600060608486031215611b3d57600080fd5b833567ffffffffffffffff80821115611b5557600080fd5b611b6187838801611ab8565b94506020860135915080821115611b7757600080fd5b611b8387838801611ab8565b93506040860135915080821115611b9957600080fd5b50611ba686828701611ab8565b9150509250925092565b60008060408385031215611bc357600080fd5b50508035926020909101359150565b600080600060608486031215611be757600080fd5b833567ffffffffffffffff80821115611bff57600080fd5b611c0b87838801611ab8565b9450602091508186013581811115611c2257600080fd5b8601601f81018813611c3357600080fd5b803582811115611c4557611c45611a71565b8060051b611c54858201611a87565b918252828101850191858101908b841115611c6e57600080fd5b86850192505b83831015611caa57823586811115611c8c5760008081fd5b611c9a8d8983890101611ab8565b8352509186019190860190611c74565b989b989a5050505060409690960135955050505050565b602080825282518282018190526000919060409081850190868401855b82811015611d2157815180518552868101516001600160a01b03168786015285810151868601526060908101519085015260809093019290850190600101611cde565b5091979650505050505050565b60008060408385031215611d4157600080fd5b611d4a83611980565b946020939093013593505050565b8481526001600160a01b0384166020820152608060408201819052600090611d82908301856119be565b905082606083015295945050505050565b60006020808301818452808551808352604092508286019150828160051b87010184880160005b83811015611e3e57603f19898403018552815160a08151855288820151818a870152611de8828701826119be565b9150508782015185820389870152611e0082826119be565b91505060608083015186830382880152611e1a83826119be565b60809485015115159790940196909652505094870194925090860190600101611dba565b509098975050505050505050565b600181811c90821680611e6057607f821691505b602082108103611e8057634e487b7160e01b600052602260045260246000fd5b50919050565b634e487b7160e01b600052601160045260246000fd5b600060018201611eae57611eae611e86565b5060010190565b601f821115611eff57600081815260208120601f850160051c81016020861015611edc5750805b601f850160051c820191505b81811015611efb57828155600101611ee8565b5050505b505050565b815167ffffffffffffffff811115611f1e57611f1e611a71565b611f3281611f2c8454611e4c565b84611eb5565b602080601f831160018114611f675760008415611f4f5750858301515b600019600386901b1c1916600185901b178555611efb565b600085815260208120601f198616915b82811015611f9657888601518255948401946001909101908401611f77565b5085821015611fb45787850151600019600388901b60f8161c191681555b5050505050600190811b01905550565b606081526000611fd760608301866119be565b8281036020840152611fe981866119be565b90508281036040840152611ffd81856119be565b9695505050505050565b6020808252602e908201527f4f6e6c79207265676973746572656420617274697374732063616e2063616c6c60408201526d103a3434b990333ab731ba34b7b760911b606082015260800190565b60408152600061206860408301856119be565b90508260208301529392505050565b634e487b7160e01b600052603260045260246000fd5b808201808211156120a0576120a0611e86565b92915050565b818103818111156120a0576120a0611e86565b634e487b7160e01b600052603160045260246000fdfea2646970667358221220e0dafc7481d75d185a4612e6287ac5588e55eaeb2da1a639335c3b14fd6194b364736f6c63430008140033",
  "linkReferences": {},
  "deployedLinkReferences": {}
}